{
	"02 리믹스로 솔리디티 시작하기/Ex2_9논리 연산자.sol": {
		"Ex2_9": {
			"abi": [
				{
					"inputs": [],
					"name": "logical",
					"outputs": [
						{
							"internalType": "bool",
							"name": "",
							"type": "bool"
						},
						{
							"internalType": "bool",
							"name": "",
							"type": "bool"
						},
						{
							"internalType": "bool",
							"name": "",
							"type": "bool"
						},
						{
							"internalType": "bool",
							"name": "",
							"type": "bool"
						},
						{
							"internalType": "bool",
							"name": "",
							"type": "bool"
						},
						{
							"internalType": "bool",
							"name": "",
							"type": "bool"
						},
						{
							"internalType": "bool",
							"name": "",
							"type": "bool"
						},
						{
							"internalType": "bool",
							"name": "",
							"type": "bool"
						}
					],
					"stateMutability": "view",
					"type": "function"
				}
			],
			"devdoc": {
				"kind": "dev",
				"methods": {},
				"version": 1
			},
			"evm": {
				"assembly": "    /* \"02 \\xeb\\xa6\\xac\\xeb\\xaf\\xb9\\xec\\x8a\\xa4\\xeb\\xa1\\x9c \\xec\\x86\\x94\\xeb\\xa6\\xac\\xeb\\x94\\x94\\xed\\x8b\\xb0 \\xec\\x8b\\x9c\\xec\\x9e\\x91\\xed\\x95\\x98\\xea\\xb8\\xb0/Ex2_9\\xeb\\x85\\xbc\\xeb\\xa6\\xac \\xec\\x97\\xb0\\xec\\x82\\xb0\\xec\\x9e\\x90.sol\":73:691  contract Ex2_9{... */\n  mstore(0x40, 0x80)\n    /* \"02 \\xeb\\xa6\\xac\\xeb\\xaf\\xb9\\xec\\x8a\\xa4\\xeb\\xa1\\x9c \\xec\\x86\\x94\\xeb\\xa6\\xac\\xeb\\x94\\x94\\xed\\x8b\\xb0 \\xec\\x8b\\x9c\\xec\\x9e\\x91\\xed\\x95\\x98\\xea\\xb8\\xb0/Ex2_9\\xeb\\x85\\xbc\\xeb\\xa6\\xac \\xec\\x97\\xb0\\xec\\x82\\xb0\\xec\\x9e\\x90.sol\":160:164  true */\n  0x01\n    /* \"02 \\xeb\\xa6\\xac\\xeb\\xaf\\xb9\\xec\\x8a\\xa4\\xeb\\xa1\\x9c \\xec\\x86\\x94\\xeb\\xa6\\xac\\xeb\\x94\\x94\\xed\\x8b\\xb0 \\xec\\x8b\\x9c\\xec\\x9e\\x91\\xed\\x95\\x98\\xea\\xb8\\xb0/Ex2_9\\xeb\\x85\\xbc\\xeb\\xa6\\xac \\xec\\x97\\xb0\\xec\\x82\\xb0\\xec\\x9e\\x90.sol\":160:172  true && true */\n  dup1\n  iszero\n  tag_1\n  jumpi\n  pop\n    /* \"02 \\xeb\\xa6\\xac\\xeb\\xaf\\xb9\\xec\\x8a\\xa4\\xeb\\xa1\\x9c \\xec\\x86\\x94\\xeb\\xa6\\xac\\xeb\\x94\\x94\\xed\\x8b\\xb0 \\xec\\x8b\\x9c\\xec\\x9e\\x91\\xed\\x95\\x98\\xea\\xb8\\xb0/Ex2_9\\xeb\\x85\\xbc\\xeb\\xa6\\xac \\xec\\x97\\xb0\\xec\\x82\\xb0\\xec\\x9e\\x90.sol\":168:172  true */\n  0x01\n    /* \"02 \\xeb\\xa6\\xac\\xeb\\xaf\\xb9\\xec\\x8a\\xa4\\xeb\\xa1\\x9c \\xec\\x86\\x94\\xeb\\xa6\\xac\\xeb\\x94\\x94\\xed\\x8b\\xb0 \\xec\\x8b\\x9c\\xec\\x9e\\x91\\xed\\x95\\x98\\xea\\xb8\\xb0/Ex2_9\\xeb\\x85\\xbc\\xeb\\xa6\\xac \\xec\\x97\\xb0\\xec\\x82\\xb0\\xec\\x9e\\x90.sol\":160:172  true && true */\ntag_1:\n    /* \"02 \\xeb\\xa6\\xac\\xeb\\xaf\\xb9\\xec\\x8a\\xa4\\xeb\\xa1\\x9c \\xec\\x86\\x94\\xeb\\xa6\\xac\\xeb\\x94\\x94\\xed\\x8b\\xb0 \\xec\\x8b\\x9c\\xec\\x9e\\x91\\xed\\x95\\x98\\xea\\xb8\\xb0/Ex2_9\\xeb\\x85\\xbc\\xeb\\xa6\\xac \\xec\\x97\\xb0\\xec\\x82\\xb0\\xec\\x9e\\x90.sol\":151:172  bool a = true && true */\n  0x00\n  exp(0x0100, 0x00)\n  dup2\n  sload\n  dup2\n  0xff\n  mul\n  not\n  and\n  swap1\n  dup4\n  iszero\n  iszero\n  mul\n  or\n  swap1\n  sstore\n  pop\n    /* \"02 \\xeb\\xa6\\xac\\xeb\\xaf\\xb9\\xec\\x8a\\xa4\\xeb\\xa1\\x9c \\xec\\x86\\x94\\xeb\\xa6\\xac\\xeb\\x94\\x94\\xed\\x8b\\xb0 \\xec\\x8b\\x9c\\xec\\x9e\\x91\\xed\\x95\\x98\\xea\\xb8\\xb0/Ex2_9\\xeb\\x85\\xbc\\xeb\\xa6\\xac \\xec\\x97\\xb0\\xec\\x82\\xb0\\xec\\x9e\\x90.sol\":243:247  true */\n  0x01\n    /* \"02 \\xeb\\xa6\\xac\\xeb\\xaf\\xb9\\xec\\x8a\\xa4\\xeb\\xa1\\x9c \\xec\\x86\\x94\\xeb\\xa6\\xac\\xeb\\x94\\x94\\xed\\x8b\\xb0 \\xec\\x8b\\x9c\\xec\\x9e\\x91\\xed\\x95\\x98\\xea\\xb8\\xb0/Ex2_9\\xeb\\x85\\xbc\\xeb\\xa6\\xac \\xec\\x97\\xb0\\xec\\x82\\xb0\\xec\\x9e\\x90.sol\":243:256  true && false */\n  dup1\n  iszero\n  tag_2\n  jumpi\n  pop\n    /* \"02 \\xeb\\xa6\\xac\\xeb\\xaf\\xb9\\xec\\x8a\\xa4\\xeb\\xa1\\x9c \\xec\\x86\\x94\\xeb\\xa6\\xac\\xeb\\x94\\x94\\xed\\x8b\\xb0 \\xec\\x8b\\x9c\\xec\\x9e\\x91\\xed\\x95\\x98\\xea\\xb8\\xb0/Ex2_9\\xeb\\x85\\xbc\\xeb\\xa6\\xac \\xec\\x97\\xb0\\xec\\x82\\xb0\\xec\\x9e\\x90.sol\":251:256  false */\n  0x00\n    /* \"02 \\xeb\\xa6\\xac\\xeb\\xaf\\xb9\\xec\\x8a\\xa4\\xeb\\xa1\\x9c \\xec\\x86\\x94\\xeb\\xa6\\xac\\xeb\\x94\\x94\\xed\\x8b\\xb0 \\xec\\x8b\\x9c\\xec\\x9e\\x91\\xed\\x95\\x98\\xea\\xb8\\xb0/Ex2_9\\xeb\\x85\\xbc\\xeb\\xa6\\xac \\xec\\x97\\xb0\\xec\\x82\\xb0\\xec\\x9e\\x90.sol\":243:256  true && false */\ntag_2:\n    /* \"02 \\xeb\\xa6\\xac\\xeb\\xaf\\xb9\\xec\\x8a\\xa4\\xeb\\xa1\\x9c \\xec\\x86\\x94\\xeb\\xa6\\xac\\xeb\\x94\\x94\\xed\\x8b\\xb0 \\xec\\x8b\\x9c\\xec\\x9e\\x91\\xed\\x95\\x98\\xea\\xb8\\xb0/Ex2_9\\xeb\\x85\\xbc\\xeb\\xa6\\xac \\xec\\x97\\xb0\\xec\\x82\\xb0\\xec\\x9e\\x90.sol\":234:256  bool b = true && false */\n  0x00\n  exp(0x0100, 0x01)\n  dup2\n  sload\n  dup2\n  0xff\n  mul\n  not\n  and\n  swap1\n  dup4\n  iszero\n  iszero\n  mul\n  or\n  swap1\n  sstore\n  pop\n    /* \"02 \\xeb\\xa6\\xac\\xeb\\xaf\\xb9\\xec\\x8a\\xa4\\xeb\\xa1\\x9c \\xec\\x86\\x94\\xeb\\xa6\\xac\\xeb\\x94\\x94\\xed\\x8b\\xb0 \\xec\\x8b\\x9c\\xec\\x9e\\x91\\xed\\x95\\x98\\xea\\xb8\\xb0/Ex2_9\\xeb\\x85\\xbc\\xeb\\xa6\\xac \\xec\\x97\\xb0\\xec\\x82\\xb0\\xec\\x9e\\x90.sol\":272:277  false */\n  0x00\n    /* \"02 \\xeb\\xa6\\xac\\xeb\\xaf\\xb9\\xec\\x8a\\xa4\\xeb\\xa1\\x9c \\xec\\x86\\x94\\xeb\\xa6\\xac\\xeb\\x94\\x94\\xed\\x8b\\xb0 \\xec\\x8b\\x9c\\xec\\x9e\\x91\\xed\\x95\\x98\\xea\\xb8\\xb0/Ex2_9\\xeb\\x85\\xbc\\xeb\\xa6\\xac \\xec\\x97\\xb0\\xec\\x82\\xb0\\xec\\x9e\\x90.sol\":272:285  false && true */\n  dup1\n  iszero\n  tag_3\n  jumpi\n  pop\n    /* \"02 \\xeb\\xa6\\xac\\xeb\\xaf\\xb9\\xec\\x8a\\xa4\\xeb\\xa1\\x9c \\xec\\x86\\x94\\xeb\\xa6\\xac\\xeb\\x94\\x94\\xed\\x8b\\xb0 \\xec\\x8b\\x9c\\xec\\x9e\\x91\\xed\\x95\\x98\\xea\\xb8\\xb0/Ex2_9\\xeb\\x85\\xbc\\xeb\\xa6\\xac \\xec\\x97\\xb0\\xec\\x82\\xb0\\xec\\x9e\\x90.sol\":281:285  true */\n  0x01\n    /* \"02 \\xeb\\xa6\\xac\\xeb\\xaf\\xb9\\xec\\x8a\\xa4\\xeb\\xa1\\x9c \\xec\\x86\\x94\\xeb\\xa6\\xac\\xeb\\x94\\x94\\xed\\x8b\\xb0 \\xec\\x8b\\x9c\\xec\\x9e\\x91\\xed\\x95\\x98\\xea\\xb8\\xb0/Ex2_9\\xeb\\x85\\xbc\\xeb\\xa6\\xac \\xec\\x97\\xb0\\xec\\x82\\xb0\\xec\\x9e\\x90.sol\":272:285  false && true */\ntag_3:\n    /* \"02 \\xeb\\xa6\\xac\\xeb\\xaf\\xb9\\xec\\x8a\\xa4\\xeb\\xa1\\x9c \\xec\\x86\\x94\\xeb\\xa6\\xac\\xeb\\x94\\x94\\xed\\x8b\\xb0 \\xec\\x8b\\x9c\\xec\\x9e\\x91\\xed\\x95\\x98\\xea\\xb8\\xb0/Ex2_9\\xeb\\x85\\xbc\\xeb\\xa6\\xac \\xec\\x97\\xb0\\xec\\x82\\xb0\\xec\\x9e\\x90.sol\":263:285  bool c = false && true */\n  0x00\n  exp(0x0100, 0x02)\n  dup2\n  sload\n  dup2\n  0xff\n  mul\n  not\n  and\n  swap1\n  dup4\n  iszero\n  iszero\n  mul\n  or\n  swap1\n  sstore\n  pop\n    /* \"02 \\xeb\\xa6\\xac\\xeb\\xaf\\xb9\\xec\\x8a\\xa4\\xeb\\xa1\\x9c \\xec\\x86\\x94\\xeb\\xa6\\xac\\xeb\\x94\\x94\\xed\\x8b\\xb0 \\xec\\x8b\\x9c\\xec\\x9e\\x91\\xed\\x95\\x98\\xea\\xb8\\xb0/Ex2_9\\xeb\\x85\\xbc\\xeb\\xa6\\xac \\xec\\x97\\xb0\\xec\\x82\\xb0\\xec\\x9e\\x90.sol\":301:305  true */\n  0x01\n    /* \"02 \\xeb\\xa6\\xac\\xeb\\xaf\\xb9\\xec\\x8a\\xa4\\xeb\\xa1\\x9c \\xec\\x86\\x94\\xeb\\xa6\\xac\\xeb\\x94\\x94\\xed\\x8b\\xb0 \\xec\\x8b\\x9c\\xec\\x9e\\x91\\xed\\x95\\x98\\xea\\xb8\\xb0/Ex2_9\\xeb\\x85\\xbc\\xeb\\xa6\\xac \\xec\\x97\\xb0\\xec\\x82\\xb0\\xec\\x9e\\x90.sol\":301:313  true || true */\n  dup1\n  tag_4\n  jumpi\n  pop\n    /* \"02 \\xeb\\xa6\\xac\\xeb\\xaf\\xb9\\xec\\x8a\\xa4\\xeb\\xa1\\x9c \\xec\\x86\\x94\\xeb\\xa6\\xac\\xeb\\x94\\x94\\xed\\x8b\\xb0 \\xec\\x8b\\x9c\\xec\\x9e\\x91\\xed\\x95\\x98\\xea\\xb8\\xb0/Ex2_9\\xeb\\x85\\xbc\\xeb\\xa6\\xac \\xec\\x97\\xb0\\xec\\x82\\xb0\\xec\\x9e\\x90.sol\":309:313  true */\n  0x01\n    /* \"02 \\xeb\\xa6\\xac\\xeb\\xaf\\xb9\\xec\\x8a\\xa4\\xeb\\xa1\\x9c \\xec\\x86\\x94\\xeb\\xa6\\xac\\xeb\\x94\\x94\\xed\\x8b\\xb0 \\xec\\x8b\\x9c\\xec\\x9e\\x91\\xed\\x95\\x98\\xea\\xb8\\xb0/Ex2_9\\xeb\\x85\\xbc\\xeb\\xa6\\xac \\xec\\x97\\xb0\\xec\\x82\\xb0\\xec\\x9e\\x90.sol\":301:313  true || true */\ntag_4:\n    /* \"02 \\xeb\\xa6\\xac\\xeb\\xaf\\xb9\\xec\\x8a\\xa4\\xeb\\xa1\\x9c \\xec\\x86\\x94\\xeb\\xa6\\xac\\xeb\\x94\\x94\\xed\\x8b\\xb0 \\xec\\x8b\\x9c\\xec\\x9e\\x91\\xed\\x95\\x98\\xea\\xb8\\xb0/Ex2_9\\xeb\\x85\\xbc\\xeb\\xa6\\xac \\xec\\x97\\xb0\\xec\\x82\\xb0\\xec\\x9e\\x90.sol\":292:313  bool d = true || true */\n  0x00\n  exp(0x0100, 0x03)\n  dup2\n  sload\n  dup2\n  0xff\n  mul\n  not\n  and\n  swap1\n  dup4\n  iszero\n  iszero\n  mul\n  or\n  swap1\n  sstore\n  pop\n    /* \"02 \\xeb\\xa6\\xac\\xeb\\xaf\\xb9\\xec\\x8a\\xa4\\xeb\\xa1\\x9c \\xec\\x86\\x94\\xeb\\xa6\\xac\\xeb\\x94\\x94\\xed\\x8b\\xb0 \\xec\\x8b\\x9c\\xec\\x9e\\x91\\xed\\x95\\x98\\xea\\xb8\\xb0/Ex2_9\\xeb\\x85\\xbc\\xeb\\xa6\\xac \\xec\\x97\\xb0\\xec\\x82\\xb0\\xec\\x9e\\x90.sol\":387:391  true */\n  0x01\n    /* \"02 \\xeb\\xa6\\xac\\xeb\\xaf\\xb9\\xec\\x8a\\xa4\\xeb\\xa1\\x9c \\xec\\x86\\x94\\xeb\\xa6\\xac\\xeb\\x94\\x94\\xed\\x8b\\xb0 \\xec\\x8b\\x9c\\xec\\x9e\\x91\\xed\\x95\\x98\\xea\\xb8\\xb0/Ex2_9\\xeb\\x85\\xbc\\xeb\\xa6\\xac \\xec\\x97\\xb0\\xec\\x82\\xb0\\xec\\x9e\\x90.sol\":387:400  true || false */\n  dup1\n  tag_5\n  jumpi\n  pop\n    /* \"02 \\xeb\\xa6\\xac\\xeb\\xaf\\xb9\\xec\\x8a\\xa4\\xeb\\xa1\\x9c \\xec\\x86\\x94\\xeb\\xa6\\xac\\xeb\\x94\\x94\\xed\\x8b\\xb0 \\xec\\x8b\\x9c\\xec\\x9e\\x91\\xed\\x95\\x98\\xea\\xb8\\xb0/Ex2_9\\xeb\\x85\\xbc\\xeb\\xa6\\xac \\xec\\x97\\xb0\\xec\\x82\\xb0\\xec\\x9e\\x90.sol\":395:400  false */\n  0x00\n    /* \"02 \\xeb\\xa6\\xac\\xeb\\xaf\\xb9\\xec\\x8a\\xa4\\xeb\\xa1\\x9c \\xec\\x86\\x94\\xeb\\xa6\\xac\\xeb\\x94\\x94\\xed\\x8b\\xb0 \\xec\\x8b\\x9c\\xec\\x9e\\x91\\xed\\x95\\x98\\xea\\xb8\\xb0/Ex2_9\\xeb\\x85\\xbc\\xeb\\xa6\\xac \\xec\\x97\\xb0\\xec\\x82\\xb0\\xec\\x9e\\x90.sol\":387:400  true || false */\ntag_5:\n    /* \"02 \\xeb\\xa6\\xac\\xeb\\xaf\\xb9\\xec\\x8a\\xa4\\xeb\\xa1\\x9c \\xec\\x86\\x94\\xeb\\xa6\\xac\\xeb\\x94\\x94\\xed\\x8b\\xb0 \\xec\\x8b\\x9c\\xec\\x9e\\x91\\xed\\x95\\x98\\xea\\xb8\\xb0/Ex2_9\\xeb\\x85\\xbc\\xeb\\xa6\\xac \\xec\\x97\\xb0\\xec\\x82\\xb0\\xec\\x9e\\x90.sol\":378:400  bool e = true || false */\n  0x00\n  exp(0x0100, 0x04)\n  dup2\n  sload\n  dup2\n  0xff\n  mul\n  not\n  and\n  swap1\n  dup4\n  iszero\n  iszero\n  mul\n  or\n  swap1\n  sstore\n  pop\n    /* \"02 \\xeb\\xa6\\xac\\xeb\\xaf\\xb9\\xec\\x8a\\xa4\\xeb\\xa1\\x9c \\xec\\x86\\x94\\xeb\\xa6\\xac\\xeb\\x94\\x94\\xed\\x8b\\xb0 \\xec\\x8b\\x9c\\xec\\x9e\\x91\\xed\\x95\\x98\\xea\\xb8\\xb0/Ex2_9\\xeb\\x85\\xbc\\xeb\\xa6\\xac \\xec\\x97\\xb0\\xec\\x82\\xb0\\xec\\x9e\\x90.sol\":416:421  false */\n  0x00\n    /* \"02 \\xeb\\xa6\\xac\\xeb\\xaf\\xb9\\xec\\x8a\\xa4\\xeb\\xa1\\x9c \\xec\\x86\\x94\\xeb\\xa6\\xac\\xeb\\x94\\x94\\xed\\x8b\\xb0 \\xec\\x8b\\x9c\\xec\\x9e\\x91\\xed\\x95\\x98\\xea\\xb8\\xb0/Ex2_9\\xeb\\x85\\xbc\\xeb\\xa6\\xac \\xec\\x97\\xb0\\xec\\x82\\xb0\\xec\\x9e\\x90.sol\":416:430  false || false */\n  dup1\n  tag_6\n  jumpi\n  pop\n    /* \"02 \\xeb\\xa6\\xac\\xeb\\xaf\\xb9\\xec\\x8a\\xa4\\xeb\\xa1\\x9c \\xec\\x86\\x94\\xeb\\xa6\\xac\\xeb\\x94\\x94\\xed\\x8b\\xb0 \\xec\\x8b\\x9c\\xec\\x9e\\x91\\xed\\x95\\x98\\xea\\xb8\\xb0/Ex2_9\\xeb\\x85\\xbc\\xeb\\xa6\\xac \\xec\\x97\\xb0\\xec\\x82\\xb0\\xec\\x9e\\x90.sol\":425:430  false */\n  0x00\n    /* \"02 \\xeb\\xa6\\xac\\xeb\\xaf\\xb9\\xec\\x8a\\xa4\\xeb\\xa1\\x9c \\xec\\x86\\x94\\xeb\\xa6\\xac\\xeb\\x94\\x94\\xed\\x8b\\xb0 \\xec\\x8b\\x9c\\xec\\x9e\\x91\\xed\\x95\\x98\\xea\\xb8\\xb0/Ex2_9\\xeb\\x85\\xbc\\xeb\\xa6\\xac \\xec\\x97\\xb0\\xec\\x82\\xb0\\xec\\x9e\\x90.sol\":416:430  false || false */\ntag_6:\n    /* \"02 \\xeb\\xa6\\xac\\xeb\\xaf\\xb9\\xec\\x8a\\xa4\\xeb\\xa1\\x9c \\xec\\x86\\x94\\xeb\\xa6\\xac\\xeb\\x94\\x94\\xed\\x8b\\xb0 \\xec\\x8b\\x9c\\xec\\x9e\\x91\\xed\\x95\\x98\\xea\\xb8\\xb0/Ex2_9\\xeb\\x85\\xbc\\xeb\\xa6\\xac \\xec\\x97\\xb0\\xec\\x82\\xb0\\xec\\x9e\\x90.sol\":407:430  bool f = false || false */\n  0x00\n  exp(0x0100, 0x05)\n  dup2\n  sload\n  dup2\n  0xff\n  mul\n  not\n  and\n  swap1\n  dup4\n  iszero\n  iszero\n  mul\n  or\n  swap1\n  sstore\n  pop\n    /* \"02 \\xeb\\xa6\\xac\\xeb\\xaf\\xb9\\xec\\x8a\\xa4\\xeb\\xa1\\x9c \\xec\\x86\\x94\\xeb\\xa6\\xac\\xeb\\x94\\x94\\xed\\x8b\\xb0 \\xec\\x8b\\x9c\\xec\\x9e\\x91\\xed\\x95\\x98\\xea\\xb8\\xb0/Ex2_9\\xeb\\x85\\xbc\\xeb\\xa6\\xac \\xec\\x97\\xb0\\xec\\x82\\xb0\\xec\\x9e\\x90.sol\":447:451  true */\n  0x01\n    /* \"02 \\xeb\\xa6\\xac\\xeb\\xaf\\xb9\\xec\\x8a\\xa4\\xeb\\xa1\\x9c \\xec\\x86\\x94\\xeb\\xa6\\xac\\xeb\\x94\\x94\\xed\\x8b\\xb0 \\xec\\x8b\\x9c\\xec\\x9e\\x91\\xed\\x95\\x98\\xea\\xb8\\xb0/Ex2_9\\xeb\\x85\\xbc\\xeb\\xa6\\xac \\xec\\x97\\xb0\\xec\\x82\\xb0\\xec\\x9e\\x90.sol\":446:451  !true */\n  iszero\n    /* \"02 \\xeb\\xa6\\xac\\xeb\\xaf\\xb9\\xec\\x8a\\xa4\\xeb\\xa1\\x9c \\xec\\x86\\x94\\xeb\\xa6\\xac\\xeb\\x94\\x94\\xed\\x8b\\xb0 \\xec\\x8b\\x9c\\xec\\x9e\\x91\\xed\\x95\\x98\\xea\\xb8\\xb0/Ex2_9\\xeb\\x85\\xbc\\xeb\\xa6\\xac \\xec\\x97\\xb0\\xec\\x82\\xb0\\xec\\x9e\\x90.sol\":437:451  bool g = !true */\n  0x00\n  exp(0x0100, 0x06)\n  dup2\n  sload\n  dup2\n  0xff\n  mul\n  not\n  and\n  swap1\n  dup4\n  iszero\n  iszero\n  mul\n  or\n  swap1\n  sstore\n  pop\n    /* \"02 \\xeb\\xa6\\xac\\xeb\\xaf\\xb9\\xec\\x8a\\xa4\\xeb\\xa1\\x9c \\xec\\x86\\x94\\xeb\\xa6\\xac\\xeb\\x94\\x94\\xed\\x8b\\xb0 \\xec\\x8b\\x9c\\xec\\x9e\\x91\\xed\\x95\\x98\\xea\\xb8\\xb0/Ex2_9\\xeb\\x85\\xbc\\xeb\\xa6\\xac \\xec\\x97\\xb0\\xec\\x82\\xb0\\xec\\x9e\\x90.sol\":526:531  false */\n  0x00\n    /* \"02 \\xeb\\xa6\\xac\\xeb\\xaf\\xb9\\xec\\x8a\\xa4\\xeb\\xa1\\x9c \\xec\\x86\\x94\\xeb\\xa6\\xac\\xeb\\x94\\x94\\xed\\x8b\\xb0 \\xec\\x8b\\x9c\\xec\\x9e\\x91\\xed\\x95\\x98\\xea\\xb8\\xb0/Ex2_9\\xeb\\x85\\xbc\\xeb\\xa6\\xac \\xec\\x97\\xb0\\xec\\x82\\xb0\\xec\\x9e\\x90.sol\":525:531  !false */\n  iszero\n    /* \"02 \\xeb\\xa6\\xac\\xeb\\xaf\\xb9\\xec\\x8a\\xa4\\xeb\\xa1\\x9c \\xec\\x86\\x94\\xeb\\xa6\\xac\\xeb\\x94\\x94\\xed\\x8b\\xb0 \\xec\\x8b\\x9c\\xec\\x9e\\x91\\xed\\x95\\x98\\xea\\xb8\\xb0/Ex2_9\\xeb\\x85\\xbc\\xeb\\xa6\\xac \\xec\\x97\\xb0\\xec\\x82\\xb0\\xec\\x9e\\x90.sol\":516:531  bool h = !false */\n  0x00\n  exp(0x0100, 0x07)\n  dup2\n  sload\n  dup2\n  0xff\n  mul\n  not\n  and\n  swap1\n  dup4\n  iszero\n  iszero\n  mul\n  or\n  swap1\n  sstore\n  pop\n    /* \"02 \\xeb\\xa6\\xac\\xeb\\xaf\\xb9\\xec\\x8a\\xa4\\xeb\\xa1\\x9c \\xec\\x86\\x94\\xeb\\xa6\\xac\\xeb\\x94\\x94\\xed\\x8b\\xb0 \\xec\\x8b\\x9c\\xec\\x9e\\x91\\xed\\x95\\x98\\xea\\xb8\\xb0/Ex2_9\\xeb\\x85\\xbc\\xeb\\xa6\\xac \\xec\\x97\\xb0\\xec\\x82\\xb0\\xec\\x9e\\x90.sol\":73:691  contract Ex2_9{... */\n  callvalue\n  dup1\n  iszero\n  tag_7\n  jumpi\n  revert(0x00, 0x00)\ntag_7:\n  pop\n  dataSize(sub_0)\n  dup1\n  dataOffset(sub_0)\n  0x00\n  codecopy\n  0x00\n  return\nstop\n\nsub_0: assembly {\n        /* \"02 \\xeb\\xa6\\xac\\xeb\\xaf\\xb9\\xec\\x8a\\xa4\\xeb\\xa1\\x9c \\xec\\x86\\x94\\xeb\\xa6\\xac\\xeb\\x94\\x94\\xed\\x8b\\xb0 \\xec\\x8b\\x9c\\xec\\x9e\\x91\\xed\\x95\\x98\\xea\\xb8\\xb0/Ex2_9\\xeb\\x85\\xbc\\xeb\\xa6\\xac \\xec\\x97\\xb0\\xec\\x82\\xb0\\xec\\x9e\\x90.sol\":73:691  contract Ex2_9{... */\n      mstore(0x40, 0x80)\n      callvalue\n      dup1\n      iszero\n      tag_1\n      jumpi\n      revert(0x00, 0x00)\n    tag_1:\n      pop\n      jumpi(tag_2, lt(calldatasize, 0x04))\n      shr(0xe0, calldataload(0x00))\n      dup1\n      0x93daa367\n      eq\n      tag_3\n      jumpi\n    tag_2:\n      revert(0x00, 0x00)\n        /* \"02 \\xeb\\xa6\\xac\\xeb\\xaf\\xb9\\xec\\x8a\\xa4\\xeb\\xa1\\x9c \\xec\\x86\\x94\\xeb\\xa6\\xac\\xeb\\x94\\x94\\xed\\x8b\\xb0 \\xec\\x8b\\x9c\\xec\\x9e\\x91\\xed\\x95\\x98\\xea\\xb8\\xb0/Ex2_9\\xeb\\x85\\xbc\\xeb\\xa6\\xac \\xec\\x97\\xb0\\xec\\x82\\xb0\\xec\\x9e\\x90.sol\":540:688  function logical() public view returns (bool, bool, bool, bool, bool, bool, bool, bool) {... */\n    tag_3:\n      tag_4\n      tag_5\n      jump\t// in\n    tag_4:\n      mload(0x40)\n      tag_6\n      swap9\n      swap8\n      swap7\n      swap6\n      swap5\n      swap4\n      swap3\n      swap2\n      swap1\n      tag_7\n      jump\t// in\n    tag_6:\n      mload(0x40)\n      dup1\n      swap2\n      sub\n      swap1\n      return\n    tag_5:\n        /* \"02 \\xeb\\xa6\\xac\\xeb\\xaf\\xb9\\xec\\x8a\\xa4\\xeb\\xa1\\x9c \\xec\\x86\\x94\\xeb\\xa6\\xac\\xeb\\x94\\x94\\xed\\x8b\\xb0 \\xec\\x8b\\x9c\\xec\\x9e\\x91\\xed\\x95\\x98\\xea\\xb8\\xb0/Ex2_9\\xeb\\x85\\xbc\\xeb\\xa6\\xac \\xec\\x97\\xb0\\xec\\x82\\xb0\\xec\\x9e\\x90.sol\":580:584  bool */\n      0x00\n        /* \"02 \\xeb\\xa6\\xac\\xeb\\xaf\\xb9\\xec\\x8a\\xa4\\xeb\\xa1\\x9c \\xec\\x86\\x94\\xeb\\xa6\\xac\\xeb\\x94\\x94\\xed\\x8b\\xb0 \\xec\\x8b\\x9c\\xec\\x9e\\x91\\xed\\x95\\x98\\xea\\xb8\\xb0/Ex2_9\\xeb\\x85\\xbc\\xeb\\xa6\\xac \\xec\\x97\\xb0\\xec\\x82\\xb0\\xec\\x9e\\x90.sol\":586:590  bool */\n      0x00\n        /* \"02 \\xeb\\xa6\\xac\\xeb\\xaf\\xb9\\xec\\x8a\\xa4\\xeb\\xa1\\x9c \\xec\\x86\\x94\\xeb\\xa6\\xac\\xeb\\x94\\x94\\xed\\x8b\\xb0 \\xec\\x8b\\x9c\\xec\\x9e\\x91\\xed\\x95\\x98\\xea\\xb8\\xb0/Ex2_9\\xeb\\x85\\xbc\\xeb\\xa6\\xac \\xec\\x97\\xb0\\xec\\x82\\xb0\\xec\\x9e\\x90.sol\":592:596  bool */\n      0x00\n        /* \"02 \\xeb\\xa6\\xac\\xeb\\xaf\\xb9\\xec\\x8a\\xa4\\xeb\\xa1\\x9c \\xec\\x86\\x94\\xeb\\xa6\\xac\\xeb\\x94\\x94\\xed\\x8b\\xb0 \\xec\\x8b\\x9c\\xec\\x9e\\x91\\xed\\x95\\x98\\xea\\xb8\\xb0/Ex2_9\\xeb\\x85\\xbc\\xeb\\xa6\\xac \\xec\\x97\\xb0\\xec\\x82\\xb0\\xec\\x9e\\x90.sol\":598:602  bool */\n      0x00\n        /* \"02 \\xeb\\xa6\\xac\\xeb\\xaf\\xb9\\xec\\x8a\\xa4\\xeb\\xa1\\x9c \\xec\\x86\\x94\\xeb\\xa6\\xac\\xeb\\x94\\x94\\xed\\x8b\\xb0 \\xec\\x8b\\x9c\\xec\\x9e\\x91\\xed\\x95\\x98\\xea\\xb8\\xb0/Ex2_9\\xeb\\x85\\xbc\\xeb\\xa6\\xac \\xec\\x97\\xb0\\xec\\x82\\xb0\\xec\\x9e\\x90.sol\":604:608  bool */\n      0x00\n        /* \"02 \\xeb\\xa6\\xac\\xeb\\xaf\\xb9\\xec\\x8a\\xa4\\xeb\\xa1\\x9c \\xec\\x86\\x94\\xeb\\xa6\\xac\\xeb\\x94\\x94\\xed\\x8b\\xb0 \\xec\\x8b\\x9c\\xec\\x9e\\x91\\xed\\x95\\x98\\xea\\xb8\\xb0/Ex2_9\\xeb\\x85\\xbc\\xeb\\xa6\\xac \\xec\\x97\\xb0\\xec\\x82\\xb0\\xec\\x9e\\x90.sol\":610:614  bool */\n      0x00\n        /* \"02 \\xeb\\xa6\\xac\\xeb\\xaf\\xb9\\xec\\x8a\\xa4\\xeb\\xa1\\x9c \\xec\\x86\\x94\\xeb\\xa6\\xac\\xeb\\x94\\x94\\xed\\x8b\\xb0 \\xec\\x8b\\x9c\\xec\\x9e\\x91\\xed\\x95\\x98\\xea\\xb8\\xb0/Ex2_9\\xeb\\x85\\xbc\\xeb\\xa6\\xac \\xec\\x97\\xb0\\xec\\x82\\xb0\\xec\\x9e\\x90.sol\":616:620  bool */\n      0x00\n        /* \"02 \\xeb\\xa6\\xac\\xeb\\xaf\\xb9\\xec\\x8a\\xa4\\xeb\\xa1\\x9c \\xec\\x86\\x94\\xeb\\xa6\\xac\\xeb\\x94\\x94\\xed\\x8b\\xb0 \\xec\\x8b\\x9c\\xec\\x9e\\x91\\xed\\x95\\x98\\xea\\xb8\\xb0/Ex2_9\\xeb\\x85\\xbc\\xeb\\xa6\\xac \\xec\\x97\\xb0\\xec\\x82\\xb0\\xec\\x9e\\x90.sol\":622:626  bool */\n      0x00\n        /* \"02 \\xeb\\xa6\\xac\\xeb\\xaf\\xb9\\xec\\x8a\\xa4\\xeb\\xa1\\x9c \\xec\\x86\\x94\\xeb\\xa6\\xac\\xeb\\x94\\x94\\xed\\x8b\\xb0 \\xec\\x8b\\x9c\\xec\\x9e\\x91\\xed\\x95\\x98\\xea\\xb8\\xb0/Ex2_9\\xeb\\x85\\xbc\\xeb\\xa6\\xac \\xec\\x97\\xb0\\xec\\x82\\xb0\\xec\\x9e\\x90.sol\":647:648  a */\n      0x00\n      0x00\n      swap1\n      sload\n      swap1\n      0x0100\n      exp\n      swap1\n      div\n      0xff\n      and\n        /* \"02 \\xeb\\xa6\\xac\\xeb\\xaf\\xb9\\xec\\x8a\\xa4\\xeb\\xa1\\x9c \\xec\\x86\\x94\\xeb\\xa6\\xac\\xeb\\x94\\x94\\xed\\x8b\\xb0 \\xec\\x8b\\x9c\\xec\\x9e\\x91\\xed\\x95\\x98\\xea\\xb8\\xb0/Ex2_9\\xeb\\x85\\xbc\\xeb\\xa6\\xac \\xec\\x97\\xb0\\xec\\x82\\xb0\\xec\\x9e\\x90.sol\":650:651  b */\n      0x00\n      0x01\n      swap1\n      sload\n      swap1\n      0x0100\n      exp\n      swap1\n      div\n      0xff\n      and\n        /* \"02 \\xeb\\xa6\\xac\\xeb\\xaf\\xb9\\xec\\x8a\\xa4\\xeb\\xa1\\x9c \\xec\\x86\\x94\\xeb\\xa6\\xac\\xeb\\x94\\x94\\xed\\x8b\\xb0 \\xec\\x8b\\x9c\\xec\\x9e\\x91\\xed\\x95\\x98\\xea\\xb8\\xb0/Ex2_9\\xeb\\x85\\xbc\\xeb\\xa6\\xac \\xec\\x97\\xb0\\xec\\x82\\xb0\\xec\\x9e\\x90.sol\":653:654  c */\n      0x00\n      0x02\n      swap1\n      sload\n      swap1\n      0x0100\n      exp\n      swap1\n      div\n      0xff\n      and\n        /* \"02 \\xeb\\xa6\\xac\\xeb\\xaf\\xb9\\xec\\x8a\\xa4\\xeb\\xa1\\x9c \\xec\\x86\\x94\\xeb\\xa6\\xac\\xeb\\x94\\x94\\xed\\x8b\\xb0 \\xec\\x8b\\x9c\\xec\\x9e\\x91\\xed\\x95\\x98\\xea\\xb8\\xb0/Ex2_9\\xeb\\x85\\xbc\\xeb\\xa6\\xac \\xec\\x97\\xb0\\xec\\x82\\xb0\\xec\\x9e\\x90.sol\":656:657  d */\n      0x00\n      0x03\n      swap1\n      sload\n      swap1\n      0x0100\n      exp\n      swap1\n      div\n      0xff\n      and\n        /* \"02 \\xeb\\xa6\\xac\\xeb\\xaf\\xb9\\xec\\x8a\\xa4\\xeb\\xa1\\x9c \\xec\\x86\\x94\\xeb\\xa6\\xac\\xeb\\x94\\x94\\xed\\x8b\\xb0 \\xec\\x8b\\x9c\\xec\\x9e\\x91\\xed\\x95\\x98\\xea\\xb8\\xb0/Ex2_9\\xeb\\x85\\xbc\\xeb\\xa6\\xac \\xec\\x97\\xb0\\xec\\x82\\xb0\\xec\\x9e\\x90.sol\":659:660  e */\n      0x00\n      0x04\n      swap1\n      sload\n      swap1\n      0x0100\n      exp\n      swap1\n      div\n      0xff\n      and\n        /* \"02 \\xeb\\xa6\\xac\\xeb\\xaf\\xb9\\xec\\x8a\\xa4\\xeb\\xa1\\x9c \\xec\\x86\\x94\\xeb\\xa6\\xac\\xeb\\x94\\x94\\xed\\x8b\\xb0 \\xec\\x8b\\x9c\\xec\\x9e\\x91\\xed\\x95\\x98\\xea\\xb8\\xb0/Ex2_9\\xeb\\x85\\xbc\\xeb\\xa6\\xac \\xec\\x97\\xb0\\xec\\x82\\xb0\\xec\\x9e\\x90.sol\":662:663  f */\n      0x00\n      0x05\n      swap1\n      sload\n      swap1\n      0x0100\n      exp\n      swap1\n      div\n      0xff\n      and\n        /* \"02 \\xeb\\xa6\\xac\\xeb\\xaf\\xb9\\xec\\x8a\\xa4\\xeb\\xa1\\x9c \\xec\\x86\\x94\\xeb\\xa6\\xac\\xeb\\x94\\x94\\xed\\x8b\\xb0 \\xec\\x8b\\x9c\\xec\\x9e\\x91\\xed\\x95\\x98\\xea\\xb8\\xb0/Ex2_9\\xeb\\x85\\xbc\\xeb\\xa6\\xac \\xec\\x97\\xb0\\xec\\x82\\xb0\\xec\\x9e\\x90.sol\":665:666  g */\n      0x00\n      0x06\n      swap1\n      sload\n      swap1\n      0x0100\n      exp\n      swap1\n      div\n      0xff\n      and\n        /* \"02 \\xeb\\xa6\\xac\\xeb\\xaf\\xb9\\xec\\x8a\\xa4\\xeb\\xa1\\x9c \\xec\\x86\\x94\\xeb\\xa6\\xac\\xeb\\x94\\x94\\xed\\x8b\\xb0 \\xec\\x8b\\x9c\\xec\\x9e\\x91\\xed\\x95\\x98\\xea\\xb8\\xb0/Ex2_9\\xeb\\x85\\xbc\\xeb\\xa6\\xac \\xec\\x97\\xb0\\xec\\x82\\xb0\\xec\\x9e\\x90.sol\":668:669  h */\n      0x00\n      0x07\n      swap1\n      sload\n      swap1\n      0x0100\n      exp\n      swap1\n      div\n      0xff\n      and\n        /* \"02 \\xeb\\xa6\\xac\\xeb\\xaf\\xb9\\xec\\x8a\\xa4\\xeb\\xa1\\x9c \\xec\\x86\\x94\\xeb\\xa6\\xac\\xeb\\x94\\x94\\xed\\x8b\\xb0 \\xec\\x8b\\x9c\\xec\\x9e\\x91\\xed\\x95\\x98\\xea\\xb8\\xb0/Ex2_9\\xeb\\x85\\xbc\\xeb\\xa6\\xac \\xec\\x97\\xb0\\xec\\x82\\xb0\\xec\\x9e\\x90.sol\":639:670  return (a, b, c, d, e, f, g, h) */\n      swap8\n      pop\n      swap8\n      pop\n      swap8\n      pop\n      swap8\n      pop\n      swap8\n      pop\n      swap8\n      pop\n      swap8\n      pop\n      swap8\n      pop\n        /* \"02 \\xeb\\xa6\\xac\\xeb\\xaf\\xb9\\xec\\x8a\\xa4\\xeb\\xa1\\x9c \\xec\\x86\\x94\\xeb\\xa6\\xac\\xeb\\x94\\x94\\xed\\x8b\\xb0 \\xec\\x8b\\x9c\\xec\\x9e\\x91\\xed\\x95\\x98\\xea\\xb8\\xb0/Ex2_9\\xeb\\x85\\xbc\\xeb\\xa6\\xac \\xec\\x97\\xb0\\xec\\x82\\xb0\\xec\\x9e\\x90.sol\":540:688  function logical() public view returns (bool, bool, bool, bool, bool, bool, bool, bool) {... */\n      swap1\n      swap2\n      swap3\n      swap4\n      swap5\n      swap6\n      swap7\n      swap8\n      jump\t// out\n        /* \"#utility.yul\":7:97   */\n    tag_9:\n        /* \"#utility.yul\":41:48   */\n      0x00\n        /* \"#utility.yul\":84:89   */\n      dup2\n        /* \"#utility.yul\":77:90   */\n      iszero\n        /* \"#utility.yul\":70:91   */\n      iszero\n        /* \"#utility.yul\":59:91   */\n      swap1\n      pop\n        /* \"#utility.yul\":7:97   */\n      swap2\n      swap1\n      pop\n      jump\t// out\n        /* \"#utility.yul\":103:212   */\n    tag_10:\n        /* \"#utility.yul\":184:205   */\n      tag_14\n        /* \"#utility.yul\":199:204   */\n      dup2\n        /* \"#utility.yul\":184:205   */\n      tag_9\n      jump\t// in\n    tag_14:\n        /* \"#utility.yul\":179:182   */\n      dup3\n        /* \"#utility.yul\":172:206   */\n      mstore\n        /* \"#utility.yul\":103:212   */\n      pop\n      pop\n      jump\t// out\n        /* \"#utility.yul\":218:1119   */\n    tag_7:\n        /* \"#utility.yul\":459:463   */\n      0x00\n        /* \"#utility.yul\":497:500   */\n      0x0100\n        /* \"#utility.yul\":486:495   */\n      dup3\n        /* \"#utility.yul\":482:501   */\n      add\n        /* \"#utility.yul\":474:501   */\n      swap1\n      pop\n        /* \"#utility.yul\":511:576   */\n      tag_16\n        /* \"#utility.yul\":573:574   */\n      0x00\n        /* \"#utility.yul\":562:571   */\n      dup4\n        /* \"#utility.yul\":558:575   */\n      add\n        /* \"#utility.yul\":549:555   */\n      dup12\n        /* \"#utility.yul\":511:576   */\n      tag_10\n      jump\t// in\n    tag_16:\n        /* \"#utility.yul\":586:652   */\n      tag_17\n        /* \"#utility.yul\":648:650   */\n      0x20\n        /* \"#utility.yul\":637:646   */\n      dup4\n        /* \"#utility.yul\":633:651   */\n      add\n        /* \"#utility.yul\":624:630   */\n      dup11\n        /* \"#utility.yul\":586:652   */\n      tag_10\n      jump\t// in\n    tag_17:\n        /* \"#utility.yul\":662:728   */\n      tag_18\n        /* \"#utility.yul\":724:726   */\n      0x40\n        /* \"#utility.yul\":713:722   */\n      dup4\n        /* \"#utility.yul\":709:727   */\n      add\n        /* \"#utility.yul\":700:706   */\n      dup10\n        /* \"#utility.yul\":662:728   */\n      tag_10\n      jump\t// in\n    tag_18:\n        /* \"#utility.yul\":738:804   */\n      tag_19\n        /* \"#utility.yul\":800:802   */\n      0x60\n        /* \"#utility.yul\":789:798   */\n      dup4\n        /* \"#utility.yul\":785:803   */\n      add\n        /* \"#utility.yul\":776:782   */\n      dup9\n        /* \"#utility.yul\":738:804   */\n      tag_10\n      jump\t// in\n    tag_19:\n        /* \"#utility.yul\":814:881   */\n      tag_20\n        /* \"#utility.yul\":876:879   */\n      0x80\n        /* \"#utility.yul\":865:874   */\n      dup4\n        /* \"#utility.yul\":861:880   */\n      add\n        /* \"#utility.yul\":852:858   */\n      dup8\n        /* \"#utility.yul\":814:881   */\n      tag_10\n      jump\t// in\n    tag_20:\n        /* \"#utility.yul\":891:958   */\n      tag_21\n        /* \"#utility.yul\":953:956   */\n      0xa0\n        /* \"#utility.yul\":942:951   */\n      dup4\n        /* \"#utility.yul\":938:957   */\n      add\n        /* \"#utility.yul\":929:935   */\n      dup7\n        /* \"#utility.yul\":891:958   */\n      tag_10\n      jump\t// in\n    tag_21:\n        /* \"#utility.yul\":968:1035   */\n      tag_22\n        /* \"#utility.yul\":1030:1033   */\n      0xc0\n        /* \"#utility.yul\":1019:1028   */\n      dup4\n        /* \"#utility.yul\":1015:1034   */\n      add\n        /* \"#utility.yul\":1006:1012   */\n      dup6\n        /* \"#utility.yul\":968:1035   */\n      tag_10\n      jump\t// in\n    tag_22:\n        /* \"#utility.yul\":1045:1112   */\n      tag_23\n        /* \"#utility.yul\":1107:1110   */\n      0xe0\n        /* \"#utility.yul\":1096:1105   */\n      dup4\n        /* \"#utility.yul\":1092:1111   */\n      add\n        /* \"#utility.yul\":1083:1089   */\n      dup5\n        /* \"#utility.yul\":1045:1112   */\n      tag_10\n      jump\t// in\n    tag_23:\n        /* \"#utility.yul\":218:1119   */\n      swap10\n      swap9\n      pop\n      pop\n      pop\n      pop\n      pop\n      pop\n      pop\n      pop\n      pop\n      jump\t// out\n\n    auxdata: 0xa26469706673582212206fdfd6afebb52751f33bd1cf5732295f400da371293ce453b9d825e9ab35c44564736f6c634300081e0033\n}\n",
				"bytecode": {
					"linkReferences": {},
					"object": "608060405260018015610010575060015b5f5f6101000a81548160ff0219169083151502179055506001801561003257505f5b5f60016101000a81548160ff0219169083151502179055505f8015610055575060015b5f60026101000a81548160ff021916908315150217905550600180610078575060015b5f60036101000a81548160ff02191690831515021790555060018061009a57505f5b5f60046101000a81548160ff0219169083151502179055505f806100bb57505f5b5f60056101000a81548160ff0219169083151502179055506001155f60066101000a81548160ff0219169083151502179055505f155f60076101000a81548160ff021916908315150217905550348015610113575f5ffd5b506101b7806101215f395ff3fe608060405234801561000f575f5ffd5b5060043610610029575f3560e01c806393daa3671461002d575b5f5ffd5b610035610052565b604051610049989796959493929190610105565b60405180910390f35b5f5f5f5f5f5f5f5f5f5f9054906101000a900460ff165f60019054906101000a900460ff165f60029054906101000a900460ff165f60039054906101000a900460ff165f60049054906101000a900460ff165f60059054906101000a900460ff165f60069054906101000a900460ff165f60079054906101000a900460ff16975097509750975097509750975097509091929394959697565b5f8115159050919050565b6100ff816100eb565b82525050565b5f610100820190506101195f83018b6100f6565b610126602083018a6100f6565b61013360408301896100f6565b61014060608301886100f6565b61014d60808301876100f6565b61015a60a08301866100f6565b61016760c08301856100f6565b61017460e08301846100f6565b999850505050505050505056fea26469706673582212206fdfd6afebb52751f33bd1cf5732295f400da371293ce453b9d825e9ab35c44564736f6c634300081e0033",
					"opcodes": "PUSH1 0x80 PUSH1 0x40 MSTORE PUSH1 0x1 DUP1 ISZERO PUSH2 0x10 JUMPI POP PUSH1 0x1 JUMPDEST PUSH0 PUSH0 PUSH2 0x100 EXP DUP2 SLOAD DUP2 PUSH1 0xFF MUL NOT AND SWAP1 DUP4 ISZERO ISZERO MUL OR SWAP1 SSTORE POP PUSH1 0x1 DUP1 ISZERO PUSH2 0x32 JUMPI POP PUSH0 JUMPDEST PUSH0 PUSH1 0x1 PUSH2 0x100 EXP DUP2 SLOAD DUP2 PUSH1 0xFF MUL NOT AND SWAP1 DUP4 ISZERO ISZERO MUL OR SWAP1 SSTORE POP PUSH0 DUP1 ISZERO PUSH2 0x55 JUMPI POP PUSH1 0x1 JUMPDEST PUSH0 PUSH1 0x2 PUSH2 0x100 EXP DUP2 SLOAD DUP2 PUSH1 0xFF MUL NOT AND SWAP1 DUP4 ISZERO ISZERO MUL OR SWAP1 SSTORE POP PUSH1 0x1 DUP1 PUSH2 0x78 JUMPI POP PUSH1 0x1 JUMPDEST PUSH0 PUSH1 0x3 PUSH2 0x100 EXP DUP2 SLOAD DUP2 PUSH1 0xFF MUL NOT AND SWAP1 DUP4 ISZERO ISZERO MUL OR SWAP1 SSTORE POP PUSH1 0x1 DUP1 PUSH2 0x9A JUMPI POP PUSH0 JUMPDEST PUSH0 PUSH1 0x4 PUSH2 0x100 EXP DUP2 SLOAD DUP2 PUSH1 0xFF MUL NOT AND SWAP1 DUP4 ISZERO ISZERO MUL OR SWAP1 SSTORE POP PUSH0 DUP1 PUSH2 0xBB JUMPI POP PUSH0 JUMPDEST PUSH0 PUSH1 0x5 PUSH2 0x100 EXP DUP2 SLOAD DUP2 PUSH1 0xFF MUL NOT AND SWAP1 DUP4 ISZERO ISZERO MUL OR SWAP1 SSTORE POP PUSH1 0x1 ISZERO PUSH0 PUSH1 0x6 PUSH2 0x100 EXP DUP2 SLOAD DUP2 PUSH1 0xFF MUL NOT AND SWAP1 DUP4 ISZERO ISZERO MUL OR SWAP1 SSTORE POP PUSH0 ISZERO PUSH0 PUSH1 0x7 PUSH2 0x100 EXP DUP2 SLOAD DUP2 PUSH1 0xFF MUL NOT AND SWAP1 DUP4 ISZERO ISZERO MUL OR SWAP1 SSTORE POP CALLVALUE DUP1 ISZERO PUSH2 0x113 JUMPI PUSH0 PUSH0 REVERT JUMPDEST POP PUSH2 0x1B7 DUP1 PUSH2 0x121 PUSH0 CODECOPY PUSH0 RETURN INVALID PUSH1 0x80 PUSH1 0x40 MSTORE CALLVALUE DUP1 ISZERO PUSH2 0xF JUMPI PUSH0 PUSH0 REVERT JUMPDEST POP PUSH1 0x4 CALLDATASIZE LT PUSH2 0x29 JUMPI PUSH0 CALLDATALOAD PUSH1 0xE0 SHR DUP1 PUSH4 0x93DAA367 EQ PUSH2 0x2D JUMPI JUMPDEST PUSH0 PUSH0 REVERT JUMPDEST PUSH2 0x35 PUSH2 0x52 JUMP JUMPDEST PUSH1 0x40 MLOAD PUSH2 0x49 SWAP9 SWAP8 SWAP7 SWAP6 SWAP5 SWAP4 SWAP3 SWAP2 SWAP1 PUSH2 0x105 JUMP JUMPDEST PUSH1 0x40 MLOAD DUP1 SWAP2 SUB SWAP1 RETURN JUMPDEST PUSH0 PUSH0 PUSH0 PUSH0 PUSH0 PUSH0 PUSH0 PUSH0 PUSH0 PUSH0 SWAP1 SLOAD SWAP1 PUSH2 0x100 EXP SWAP1 DIV PUSH1 0xFF AND PUSH0 PUSH1 0x1 SWAP1 SLOAD SWAP1 PUSH2 0x100 EXP SWAP1 DIV PUSH1 0xFF AND PUSH0 PUSH1 0x2 SWAP1 SLOAD SWAP1 PUSH2 0x100 EXP SWAP1 DIV PUSH1 0xFF AND PUSH0 PUSH1 0x3 SWAP1 SLOAD SWAP1 PUSH2 0x100 EXP SWAP1 DIV PUSH1 0xFF AND PUSH0 PUSH1 0x4 SWAP1 SLOAD SWAP1 PUSH2 0x100 EXP SWAP1 DIV PUSH1 0xFF AND PUSH0 PUSH1 0x5 SWAP1 SLOAD SWAP1 PUSH2 0x100 EXP SWAP1 DIV PUSH1 0xFF AND PUSH0 PUSH1 0x6 SWAP1 SLOAD SWAP1 PUSH2 0x100 EXP SWAP1 DIV PUSH1 0xFF AND PUSH0 PUSH1 0x7 SWAP1 SLOAD SWAP1 PUSH2 0x100 EXP SWAP1 DIV PUSH1 0xFF AND SWAP8 POP SWAP8 POP SWAP8 POP SWAP8 POP SWAP8 POP SWAP8 POP SWAP8 POP SWAP8 POP SWAP1 SWAP2 SWAP3 SWAP4 SWAP5 SWAP6 SWAP7 SWAP8 JUMP JUMPDEST PUSH0 DUP2 ISZERO ISZERO SWAP1 POP SWAP2 SWAP1 POP JUMP JUMPDEST PUSH2 0xFF DUP2 PUSH2 0xEB JUMP JUMPDEST DUP3 MSTORE POP POP JUMP JUMPDEST PUSH0 PUSH2 0x100 DUP3 ADD SWAP1 POP PUSH2 0x119 PUSH0 DUP4 ADD DUP12 PUSH2 0xF6 JUMP JUMPDEST PUSH2 0x126 PUSH1 0x20 DUP4 ADD DUP11 PUSH2 0xF6 JUMP JUMPDEST PUSH2 0x133 PUSH1 0x40 DUP4 ADD DUP10 PUSH2 0xF6 JUMP JUMPDEST PUSH2 0x140 PUSH1 0x60 DUP4 ADD DUP9 PUSH2 0xF6 JUMP JUMPDEST PUSH2 0x14D PUSH1 0x80 DUP4 ADD DUP8 PUSH2 0xF6 JUMP JUMPDEST PUSH2 0x15A PUSH1 0xA0 DUP4 ADD DUP7 PUSH2 0xF6 JUMP JUMPDEST PUSH2 0x167 PUSH1 0xC0 DUP4 ADD DUP6 PUSH2 0xF6 JUMP JUMPDEST PUSH2 0x174 PUSH1 0xE0 DUP4 ADD DUP5 PUSH2 0xF6 JUMP JUMPDEST SWAP10 SWAP9 POP POP POP POP POP POP POP POP POP JUMP INVALID LOG2 PUSH5 0x6970667358 0x22 SLT KECCAK256 PUSH16 0xDFD6AFEBB52751F33BD1CF5732295F40 0xD LOG3 PUSH18 0x293CE453B9D825E9AB35C44564736F6C6343 STOP ADDMOD 0x1E STOP CALLER "
				},
				"gasEstimates": {
					"creation": {
						"codeDepositCost": "87800",
						"executionCost": "194737",
						"totalCost": "282537"
					},
					"external": {
						"logical()": "infinite"
					}
				},
				"methodIdentifiers": {
					"logical()": "93daa367"
				}
			},
			"storageLayout": {
				"storage": [
					{
						"astId": 6,
						"contract": "02 리믹스로 솔리디티 시작하기/Ex2_9논리 연산자.sol:Ex2_9",
						"label": "a",
						"offset": 0,
						"slot": "0",
						"type": "t_bool"
					},
					{
						"astId": 11,
						"contract": "02 리믹스로 솔리디티 시작하기/Ex2_9논리 연산자.sol:Ex2_9",
						"label": "b",
						"offset": 1,
						"slot": "0",
						"type": "t_bool"
					},
					{
						"astId": 16,
						"contract": "02 리믹스로 솔리디티 시작하기/Ex2_9논리 연산자.sol:Ex2_9",
						"label": "c",
						"offset": 2,
						"slot": "0",
						"type": "t_bool"
					},
					{
						"astId": 21,
						"contract": "02 리믹스로 솔리디티 시작하기/Ex2_9논리 연산자.sol:Ex2_9",
						"label": "d",
						"offset": 3,
						"slot": "0",
						"type": "t_bool"
					},
					{
						"astId": 26,
						"contract": "02 리믹스로 솔리디티 시작하기/Ex2_9논리 연산자.sol:Ex2_9",
						"label": "e",
						"offset": 4,
						"slot": "0",
						"type": "t_bool"
					},
					{
						"astId": 31,
						"contract": "02 리믹스로 솔리디티 시작하기/Ex2_9논리 연산자.sol:Ex2_9",
						"label": "f",
						"offset": 5,
						"slot": "0",
						"type": "t_bool"
					},
					{
						"astId": 35,
						"contract": "02 리믹스로 솔리디티 시작하기/Ex2_9논리 연산자.sol:Ex2_9",
						"label": "g",
						"offset": 6,
						"slot": "0",
						"type": "t_bool"
					},
					{
						"astId": 39,
						"contract": "02 리믹스로 솔리디티 시작하기/Ex2_9논리 연산자.sol:Ex2_9",
						"label": "h",
						"offset": 7,
						"slot": "0",
						"type": "t_bool"
					}
				],
				"types": {
					"t_bool": {
						"encoding": "inplace",
						"label": "bool",
						"numberOfBytes": "1"
					}
				}
			},
			"userdoc": {
				"kind": "user",
				"methods": {},
				"version": 1
			}
		}
	}
}