{
	"02 리믹스로 솔리디티 시작하기/Ex2_7전위 감소와 후위 감소.sol": {
		"Ex2_7": {
			"abi": [
				{
					"inputs": [],
					"name": "justA",
					"outputs": [
						{
							"internalType": "uint256",
							"name": "",
							"type": "uint256"
						}
					],
					"stateMutability": "view",
					"type": "function"
				},
				{
					"inputs": [],
					"name": "postMinus",
					"outputs": [
						{
							"internalType": "uint256",
							"name": "",
							"type": "uint256"
						}
					],
					"stateMutability": "nonpayable",
					"type": "function"
				},
				{
					"inputs": [],
					"name": "preMinus",
					"outputs": [
						{
							"internalType": "uint256",
							"name": "",
							"type": "uint256"
						}
					],
					"stateMutability": "nonpayable",
					"type": "function"
				}
			],
			"devdoc": {
				"kind": "dev",
				"methods": {},
				"version": 1
			},
			"evm": {
				"assembly": "    /* \"02 \\xeb\\xa6\\xac\\xeb\\xaf\\xb9\\xec\\x8a\\xa4\\xeb\\xa1\\x9c \\xec\\x86\\x94\\xeb\\xa6\\xac\\xeb\\x94\\x94\\xed\\x8b\\xb0 \\xec\\x8b\\x9c\\xec\\x9e\\x91\\xed\\x95\\x98\\xea\\xb8\\xb0/Ex2_7\\xec\\xa0\\x84\\xec\\x9c\\x84 \\xea\\xb0\\x90\\xec\\x86\\x8c\\xec\\x99\\x80 \\xed\\x9b\\x84\\xec\\x9c\\x84 \\xea\\xb0\\x90\\xec\\x86\\x8c.sol\":73:359  contract Ex2_7{... */\n  mstore(0x40, 0x80)\n    /* \"02 \\xeb\\xa6\\xac\\xeb\\xaf\\xb9\\xec\\x8a\\xa4\\xeb\\xa1\\x9c \\xec\\x86\\x94\\xeb\\xa6\\xac\\xeb\\x94\\x94\\xed\\x8b\\xb0 \\xec\\x8b\\x9c\\xec\\x9e\\x91\\xed\\x95\\x98\\xea\\xb8\\xb0/Ex2_7\\xec\\xa0\\x84\\xec\\x9c\\x84 \\xea\\xb0\\x90\\xec\\x86\\x8c\\xec\\x99\\x80 \\xed\\x9b\\x84\\xec\\x9c\\x84 \\xea\\xb0\\x90\\xec\\x86\\x8c.sol\":102:103  5 */\n  0x05\n    /* \"02 \\xeb\\xa6\\xac\\xeb\\xaf\\xb9\\xec\\x8a\\xa4\\xeb\\xa1\\x9c \\xec\\x86\\x94\\xeb\\xa6\\xac\\xeb\\x94\\x94\\xed\\x8b\\xb0 \\xec\\x8b\\x9c\\xec\\x9e\\x91\\xed\\x95\\x98\\xea\\xb8\\xb0/Ex2_7\\xec\\xa0\\x84\\xec\\x9c\\x84 \\xea\\xb0\\x90\\xec\\x86\\x8c\\xec\\x99\\x80 \\xed\\x9b\\x84\\xec\\x9c\\x84 \\xea\\xb0\\x90\\xec\\x86\\x8c.sol\":94:103  uint a =5 */\n  0x00\n  sstore\n    /* \"02 \\xeb\\xa6\\xac\\xeb\\xaf\\xb9\\xec\\x8a\\xa4\\xeb\\xa1\\x9c \\xec\\x86\\x94\\xeb\\xa6\\xac\\xeb\\x94\\x94\\xed\\x8b\\xb0 \\xec\\x8b\\x9c\\xec\\x9e\\x91\\xed\\x95\\x98\\xea\\xb8\\xb0/Ex2_7\\xec\\xa0\\x84\\xec\\x9c\\x84 \\xea\\xb0\\x90\\xec\\x86\\x8c\\xec\\x99\\x80 \\xed\\x9b\\x84\\xec\\x9c\\x84 \\xea\\xb0\\x90\\xec\\x86\\x8c.sol\":73:359  contract Ex2_7{... */\n  callvalue\n  dup1\n  iszero\n  tag_1\n  jumpi\n  revert(0x00, 0x00)\ntag_1:\n  pop\n  dataSize(sub_0)\n  dup1\n  dataOffset(sub_0)\n  0x00\n  codecopy\n  0x00\n  return\nstop\n\nsub_0: assembly {\n        /* \"02 \\xeb\\xa6\\xac\\xeb\\xaf\\xb9\\xec\\x8a\\xa4\\xeb\\xa1\\x9c \\xec\\x86\\x94\\xeb\\xa6\\xac\\xeb\\x94\\x94\\xed\\x8b\\xb0 \\xec\\x8b\\x9c\\xec\\x9e\\x91\\xed\\x95\\x98\\xea\\xb8\\xb0/Ex2_7\\xec\\xa0\\x84\\xec\\x9c\\x84 \\xea\\xb0\\x90\\xec\\x86\\x8c\\xec\\x99\\x80 \\xed\\x9b\\x84\\xec\\x9c\\x84 \\xea\\xb0\\x90\\xec\\x86\\x8c.sol\":73:359  contract Ex2_7{... */\n      mstore(0x40, 0x80)\n      callvalue\n      dup1\n      iszero\n      tag_1\n      jumpi\n      revert(0x00, 0x00)\n    tag_1:\n      pop\n      jumpi(tag_2, lt(calldatasize, 0x04))\n      shr(0xe0, calldataload(0x00))\n      dup1\n      0x1407b80d\n      eq\n      tag_3\n      jumpi\n      dup1\n      0x303de5dd\n      eq\n      tag_4\n      jumpi\n      dup1\n      0x34ad4560\n      eq\n      tag_5\n      jumpi\n    tag_2:\n      revert(0x00, 0x00)\n        /* \"02 \\xeb\\xa6\\xac\\xeb\\xaf\\xb9\\xec\\x8a\\xa4\\xeb\\xa1\\x9c \\xec\\x86\\x94\\xeb\\xa6\\xac\\xeb\\x94\\x94\\xed\\x8b\\xb0 \\xec\\x8b\\x9c\\xec\\x9e\\x91\\xed\\x95\\x98\\xea\\xb8\\xb0/Ex2_7\\xec\\xa0\\x84\\xec\\x9c\\x84 \\xea\\xb0\\x90\\xec\\x86\\x8c\\xec\\x99\\x80 \\xed\\x9b\\x84\\xec\\x9c\\x84 \\xea\\xb0\\x90\\xec\\x86\\x8c.sol\":112:181  function justA() public view returns(uint){... */\n    tag_3:\n      tag_6\n      tag_7\n      jump\t// in\n    tag_6:\n      mload(0x40)\n      tag_8\n      swap2\n      swap1\n      tag_9\n      jump\t// in\n    tag_8:\n      mload(0x40)\n      dup1\n      swap2\n      sub\n      swap1\n      return\n        /* \"02 \\xeb\\xa6\\xac\\xeb\\xaf\\xb9\\xec\\x8a\\xa4\\xeb\\xa1\\x9c \\xec\\x86\\x94\\xeb\\xa6\\xac\\xeb\\x94\\x94\\xed\\x8b\\xb0 \\xec\\x8b\\x9c\\xec\\x9e\\x91\\xed\\x95\\x98\\xea\\xb8\\xb0/Ex2_7\\xec\\xa0\\x84\\xec\\x9c\\x84 \\xea\\xb0\\x90\\xec\\x86\\x8c\\xec\\x99\\x80 \\xed\\x9b\\x84\\xec\\x9c\\x84 \\xea\\xb0\\x90\\xec\\x86\\x8c.sol\":189:268  function preMinus() public returns(uint){... */\n    tag_4:\n      tag_10\n      tag_11\n      jump\t// in\n    tag_10:\n      mload(0x40)\n      tag_12\n      swap2\n      swap1\n      tag_9\n      jump\t// in\n    tag_12:\n      mload(0x40)\n      dup1\n      swap2\n      sub\n      swap1\n      return\n        /* \"02 \\xeb\\xa6\\xac\\xeb\\xaf\\xb9\\xec\\x8a\\xa4\\xeb\\xa1\\x9c \\xec\\x86\\x94\\xeb\\xa6\\xac\\xeb\\x94\\x94\\xed\\x8b\\xb0 \\xec\\x8b\\x9c\\xec\\x9e\\x91\\xed\\x95\\x98\\xea\\xb8\\xb0/Ex2_7\\xec\\xa0\\x84\\xec\\x9c\\x84 \\xea\\xb0\\x90\\xec\\x86\\x8c\\xec\\x99\\x80 \\xed\\x9b\\x84\\xec\\x9c\\x84 \\xea\\xb0\\x90\\xec\\x86\\x8c.sol\":276:356  function postMinus() public returns(uint){... */\n    tag_5:\n      tag_13\n      tag_14\n      jump\t// in\n    tag_13:\n      mload(0x40)\n      tag_15\n      swap2\n      swap1\n      tag_9\n      jump\t// in\n    tag_15:\n      mload(0x40)\n      dup1\n      swap2\n      sub\n      swap1\n      return\n        /* \"02 \\xeb\\xa6\\xac\\xeb\\xaf\\xb9\\xec\\x8a\\xa4\\xeb\\xa1\\x9c \\xec\\x86\\x94\\xeb\\xa6\\xac\\xeb\\x94\\x94\\xed\\x8b\\xb0 \\xec\\x8b\\x9c\\xec\\x9e\\x91\\xed\\x95\\x98\\xea\\xb8\\xb0/Ex2_7\\xec\\xa0\\x84\\xec\\x9c\\x84 \\xea\\xb0\\x90\\xec\\x86\\x8c\\xec\\x99\\x80 \\xed\\x9b\\x84\\xec\\x9c\\x84 \\xea\\xb0\\x90\\xec\\x86\\x8c.sol\":112:181  function justA() public view returns(uint){... */\n    tag_7:\n        /* \"02 \\xeb\\xa6\\xac\\xeb\\xaf\\xb9\\xec\\x8a\\xa4\\xeb\\xa1\\x9c \\xec\\x86\\x94\\xeb\\xa6\\xac\\xeb\\x94\\x94\\xed\\x8b\\xb0 \\xec\\x8b\\x9c\\xec\\x9e\\x91\\xed\\x95\\x98\\xea\\xb8\\xb0/Ex2_7\\xec\\xa0\\x84\\xec\\x9c\\x84 \\xea\\xb0\\x90\\xec\\x86\\x8c\\xec\\x99\\x80 \\xed\\x9b\\x84\\xec\\x9c\\x84 \\xea\\xb0\\x90\\xec\\x86\\x8c.sol\":149:153  uint */\n      0x00\n        /* \"02 \\xeb\\xa6\\xac\\xeb\\xaf\\xb9\\xec\\x8a\\xa4\\xeb\\xa1\\x9c \\xec\\x86\\x94\\xeb\\xa6\\xac\\xeb\\x94\\x94\\xed\\x8b\\xb0 \\xec\\x8b\\x9c\\xec\\x9e\\x91\\xed\\x95\\x98\\xea\\xb8\\xb0/Ex2_7\\xec\\xa0\\x84\\xec\\x9c\\x84 \\xea\\xb0\\x90\\xec\\x86\\x8c\\xec\\x99\\x80 \\xed\\x9b\\x84\\xec\\x9c\\x84 \\xea\\xb0\\x90\\xec\\x86\\x8c.sol\":172:173  a */\n      sload(0x00)\n        /* \"02 \\xeb\\xa6\\xac\\xeb\\xaf\\xb9\\xec\\x8a\\xa4\\xeb\\xa1\\x9c \\xec\\x86\\x94\\xeb\\xa6\\xac\\xeb\\x94\\x94\\xed\\x8b\\xb0 \\xec\\x8b\\x9c\\xec\\x9e\\x91\\xed\\x95\\x98\\xea\\xb8\\xb0/Ex2_7\\xec\\xa0\\x84\\xec\\x9c\\x84 \\xea\\xb0\\x90\\xec\\x86\\x8c\\xec\\x99\\x80 \\xed\\x9b\\x84\\xec\\x9c\\x84 \\xea\\xb0\\x90\\xec\\x86\\x8c.sol\":165:173  return a */\n      swap1\n      pop\n        /* \"02 \\xeb\\xa6\\xac\\xeb\\xaf\\xb9\\xec\\x8a\\xa4\\xeb\\xa1\\x9c \\xec\\x86\\x94\\xeb\\xa6\\xac\\xeb\\x94\\x94\\xed\\x8b\\xb0 \\xec\\x8b\\x9c\\xec\\x9e\\x91\\xed\\x95\\x98\\xea\\xb8\\xb0/Ex2_7\\xec\\xa0\\x84\\xec\\x9c\\x84 \\xea\\xb0\\x90\\xec\\x86\\x8c\\xec\\x99\\x80 \\xed\\x9b\\x84\\xec\\x9c\\x84 \\xea\\xb0\\x90\\xec\\x86\\x8c.sol\":112:181  function justA() public view returns(uint){... */\n      swap1\n      jump\t// out\n        /* \"02 \\xeb\\xa6\\xac\\xeb\\xaf\\xb9\\xec\\x8a\\xa4\\xeb\\xa1\\x9c \\xec\\x86\\x94\\xeb\\xa6\\xac\\xeb\\x94\\x94\\xed\\x8b\\xb0 \\xec\\x8b\\x9c\\xec\\x9e\\x91\\xed\\x95\\x98\\xea\\xb8\\xb0/Ex2_7\\xec\\xa0\\x84\\xec\\x9c\\x84 \\xea\\xb0\\x90\\xec\\x86\\x8c\\xec\\x99\\x80 \\xed\\x9b\\x84\\xec\\x9c\\x84 \\xea\\xb0\\x90\\xec\\x86\\x8c.sol\":189:268  function preMinus() public returns(uint){... */\n    tag_11:\n        /* \"02 \\xeb\\xa6\\xac\\xeb\\xaf\\xb9\\xec\\x8a\\xa4\\xeb\\xa1\\x9c \\xec\\x86\\x94\\xeb\\xa6\\xac\\xeb\\x94\\x94\\xed\\x8b\\xb0 \\xec\\x8b\\x9c\\xec\\x9e\\x91\\xed\\x95\\x98\\xea\\xb8\\xb0/Ex2_7\\xec\\xa0\\x84\\xec\\x9c\\x84 \\xea\\xb0\\x90\\xec\\x86\\x8c\\xec\\x99\\x80 \\xed\\x9b\\x84\\xec\\x9c\\x84 \\xea\\xb0\\x90\\xec\\x86\\x8c.sol\":224:228  uint */\n      0x00\n        /* \"02 \\xeb\\xa6\\xac\\xeb\\xaf\\xb9\\xec\\x8a\\xa4\\xeb\\xa1\\x9c \\xec\\x86\\x94\\xeb\\xa6\\xac\\xeb\\x94\\x94\\xed\\x8b\\xb0 \\xec\\x8b\\x9c\\xec\\x9e\\x91\\xed\\x95\\x98\\xea\\xb8\\xb0/Ex2_7\\xec\\xa0\\x84\\xec\\x9c\\x84 \\xea\\xb0\\x90\\xec\\x86\\x8c\\xec\\x99\\x80 \\xed\\x9b\\x84\\xec\\x9c\\x84 \\xea\\xb0\\x90\\xec\\x86\\x8c.sol\":249:250  a */\n      0x00\n      0x00\n        /* \"02 \\xeb\\xa6\\xac\\xeb\\xaf\\xb9\\xec\\x8a\\xa4\\xeb\\xa1\\x9c \\xec\\x86\\x94\\xeb\\xa6\\xac\\xeb\\x94\\x94\\xed\\x8b\\xb0 \\xec\\x8b\\x9c\\xec\\x9e\\x91\\xed\\x95\\x98\\xea\\xb8\\xb0/Ex2_7\\xec\\xa0\\x84\\xec\\x9c\\x84 \\xea\\xb0\\x90\\xec\\x86\\x8c\\xec\\x99\\x80 \\xed\\x9b\\x84\\xec\\x9c\\x84 \\xea\\xb0\\x90\\xec\\x86\\x8c.sol\":247:250  --a */\n      dup2\n      sload\n      tag_18\n      swap1\n      tag_19\n      jump\t// in\n    tag_18:\n      swap2\n      swap1\n      pop\n      dup2\n      swap1\n      sstore\n        /* \"02 \\xeb\\xa6\\xac\\xeb\\xaf\\xb9\\xec\\x8a\\xa4\\xeb\\xa1\\x9c \\xec\\x86\\x94\\xeb\\xa6\\xac\\xeb\\x94\\x94\\xed\\x8b\\xb0 \\xec\\x8b\\x9c\\xec\\x9e\\x91\\xed\\x95\\x98\\xea\\xb8\\xb0/Ex2_7\\xec\\xa0\\x84\\xec\\x9c\\x84 \\xea\\xb0\\x90\\xec\\x86\\x8c\\xec\\x99\\x80 \\xed\\x9b\\x84\\xec\\x9c\\x84 \\xea\\xb0\\x90\\xec\\x86\\x8c.sol\":240:250  return --a */\n      swap1\n      pop\n        /* \"02 \\xeb\\xa6\\xac\\xeb\\xaf\\xb9\\xec\\x8a\\xa4\\xeb\\xa1\\x9c \\xec\\x86\\x94\\xeb\\xa6\\xac\\xeb\\x94\\x94\\xed\\x8b\\xb0 \\xec\\x8b\\x9c\\xec\\x9e\\x91\\xed\\x95\\x98\\xea\\xb8\\xb0/Ex2_7\\xec\\xa0\\x84\\xec\\x9c\\x84 \\xea\\xb0\\x90\\xec\\x86\\x8c\\xec\\x99\\x80 \\xed\\x9b\\x84\\xec\\x9c\\x84 \\xea\\xb0\\x90\\xec\\x86\\x8c.sol\":189:268  function preMinus() public returns(uint){... */\n      swap1\n      jump\t// out\n        /* \"02 \\xeb\\xa6\\xac\\xeb\\xaf\\xb9\\xec\\x8a\\xa4\\xeb\\xa1\\x9c \\xec\\x86\\x94\\xeb\\xa6\\xac\\xeb\\x94\\x94\\xed\\x8b\\xb0 \\xec\\x8b\\x9c\\xec\\x9e\\x91\\xed\\x95\\x98\\xea\\xb8\\xb0/Ex2_7\\xec\\xa0\\x84\\xec\\x9c\\x84 \\xea\\xb0\\x90\\xec\\x86\\x8c\\xec\\x99\\x80 \\xed\\x9b\\x84\\xec\\x9c\\x84 \\xea\\xb0\\x90\\xec\\x86\\x8c.sol\":276:356  function postMinus() public returns(uint){... */\n    tag_14:\n        /* \"02 \\xeb\\xa6\\xac\\xeb\\xaf\\xb9\\xec\\x8a\\xa4\\xeb\\xa1\\x9c \\xec\\x86\\x94\\xeb\\xa6\\xac\\xeb\\x94\\x94\\xed\\x8b\\xb0 \\xec\\x8b\\x9c\\xec\\x9e\\x91\\xed\\x95\\x98\\xea\\xb8\\xb0/Ex2_7\\xec\\xa0\\x84\\xec\\x9c\\x84 \\xea\\xb0\\x90\\xec\\x86\\x8c\\xec\\x99\\x80 \\xed\\x9b\\x84\\xec\\x9c\\x84 \\xea\\xb0\\x90\\xec\\x86\\x8c.sol\":312:316  uint */\n      0x00\n        /* \"02 \\xeb\\xa6\\xac\\xeb\\xaf\\xb9\\xec\\x8a\\xa4\\xeb\\xa1\\x9c \\xec\\x86\\x94\\xeb\\xa6\\xac\\xeb\\x94\\x94\\xed\\x8b\\xb0 \\xec\\x8b\\x9c\\xec\\x9e\\x91\\xed\\x95\\x98\\xea\\xb8\\xb0/Ex2_7\\xec\\xa0\\x84\\xec\\x9c\\x84 \\xea\\xb0\\x90\\xec\\x86\\x8c\\xec\\x99\\x80 \\xed\\x9b\\x84\\xec\\x9c\\x84 \\xea\\xb0\\x90\\xec\\x86\\x8c.sol\":335:336  a */\n      0x00\n      0x00\n        /* \"02 \\xeb\\xa6\\xac\\xeb\\xaf\\xb9\\xec\\x8a\\xa4\\xeb\\xa1\\x9c \\xec\\x86\\x94\\xeb\\xa6\\xac\\xeb\\x94\\x94\\xed\\x8b\\xb0 \\xec\\x8b\\x9c\\xec\\x9e\\x91\\xed\\x95\\x98\\xea\\xb8\\xb0/Ex2_7\\xec\\xa0\\x84\\xec\\x9c\\x84 \\xea\\xb0\\x90\\xec\\x86\\x8c\\xec\\x99\\x80 \\xed\\x9b\\x84\\xec\\x9c\\x84 \\xea\\xb0\\x90\\xec\\x86\\x8c.sol\":335:338  a-- */\n      dup2\n      sload\n      dup1\n      swap3\n      swap2\n      swap1\n      tag_21\n      swap1\n      tag_19\n      jump\t// in\n    tag_21:\n      swap2\n      swap1\n      pop\n      sstore\n        /* \"02 \\xeb\\xa6\\xac\\xeb\\xaf\\xb9\\xec\\x8a\\xa4\\xeb\\xa1\\x9c \\xec\\x86\\x94\\xeb\\xa6\\xac\\xeb\\x94\\x94\\xed\\x8b\\xb0 \\xec\\x8b\\x9c\\xec\\x9e\\x91\\xed\\x95\\x98\\xea\\xb8\\xb0/Ex2_7\\xec\\xa0\\x84\\xec\\x9c\\x84 \\xea\\xb0\\x90\\xec\\x86\\x8c\\xec\\x99\\x80 \\xed\\x9b\\x84\\xec\\x9c\\x84 \\xea\\xb0\\x90\\xec\\x86\\x8c.sol\":328:338  return a-- */\n      swap1\n      pop\n        /* \"02 \\xeb\\xa6\\xac\\xeb\\xaf\\xb9\\xec\\x8a\\xa4\\xeb\\xa1\\x9c \\xec\\x86\\x94\\xeb\\xa6\\xac\\xeb\\x94\\x94\\xed\\x8b\\xb0 \\xec\\x8b\\x9c\\xec\\x9e\\x91\\xed\\x95\\x98\\xea\\xb8\\xb0/Ex2_7\\xec\\xa0\\x84\\xec\\x9c\\x84 \\xea\\xb0\\x90\\xec\\x86\\x8c\\xec\\x99\\x80 \\xed\\x9b\\x84\\xec\\x9c\\x84 \\xea\\xb0\\x90\\xec\\x86\\x8c.sol\":276:356  function postMinus() public returns(uint){... */\n      swap1\n      jump\t// out\n        /* \"#utility.yul\":7:84   */\n    tag_22:\n        /* \"#utility.yul\":44:51   */\n      0x00\n        /* \"#utility.yul\":73:78   */\n      dup2\n        /* \"#utility.yul\":62:78   */\n      swap1\n      pop\n        /* \"#utility.yul\":7:84   */\n      swap2\n      swap1\n      pop\n      jump\t// out\n        /* \"#utility.yul\":90:208   */\n    tag_23:\n        /* \"#utility.yul\":177:201   */\n      tag_28\n        /* \"#utility.yul\":195:200   */\n      dup2\n        /* \"#utility.yul\":177:201   */\n      tag_22\n      jump\t// in\n    tag_28:\n        /* \"#utility.yul\":172:175   */\n      dup3\n        /* \"#utility.yul\":165:202   */\n      mstore\n        /* \"#utility.yul\":90:208   */\n      pop\n      pop\n      jump\t// out\n        /* \"#utility.yul\":214:436   */\n    tag_9:\n        /* \"#utility.yul\":307:311   */\n      0x00\n        /* \"#utility.yul\":345:347   */\n      0x20\n        /* \"#utility.yul\":334:343   */\n      dup3\n        /* \"#utility.yul\":330:348   */\n      add\n        /* \"#utility.yul\":322:348   */\n      swap1\n      pop\n        /* \"#utility.yul\":358:429   */\n      tag_30\n        /* \"#utility.yul\":426:427   */\n      0x00\n        /* \"#utility.yul\":415:424   */\n      dup4\n        /* \"#utility.yul\":411:428   */\n      add\n        /* \"#utility.yul\":402:408   */\n      dup5\n        /* \"#utility.yul\":358:429   */\n      tag_23\n      jump\t// in\n    tag_30:\n        /* \"#utility.yul\":214:436   */\n      swap3\n      swap2\n      pop\n      pop\n      jump\t// out\n        /* \"#utility.yul\":442:622   */\n    tag_24:\n        /* \"#utility.yul\":490:567   */\n      0x4e487b7100000000000000000000000000000000000000000000000000000000\n        /* \"#utility.yul\":487:488   */\n      0x00\n        /* \"#utility.yul\":480:568   */\n      mstore\n        /* \"#utility.yul\":587:591   */\n      0x11\n        /* \"#utility.yul\":584:585   */\n      0x04\n        /* \"#utility.yul\":577:592   */\n      mstore\n        /* \"#utility.yul\":611:615   */\n      0x24\n        /* \"#utility.yul\":608:609   */\n      0x00\n        /* \"#utility.yul\":601:616   */\n      revert\n        /* \"#utility.yul\":628:799   */\n    tag_19:\n        /* \"#utility.yul\":667:670   */\n      0x00\n        /* \"#utility.yul\":690:714   */\n      tag_33\n        /* \"#utility.yul\":708:713   */\n      dup3\n        /* \"#utility.yul\":690:714   */\n      tag_22\n      jump\t// in\n    tag_33:\n        /* \"#utility.yul\":681:714   */\n      swap2\n      pop\n        /* \"#utility.yul\":736:740   */\n      0x00\n        /* \"#utility.yul\":729:734   */\n      dup3\n        /* \"#utility.yul\":726:741   */\n      sub\n        /* \"#utility.yul\":723:764   */\n      tag_34\n      jumpi\n        /* \"#utility.yul\":744:762   */\n      tag_35\n      tag_24\n      jump\t// in\n    tag_35:\n        /* \"#utility.yul\":723:764   */\n    tag_34:\n        /* \"#utility.yul\":791:792   */\n      0x01\n        /* \"#utility.yul\":784:789   */\n      dup3\n        /* \"#utility.yul\":780:793   */\n      sub\n        /* \"#utility.yul\":773:793   */\n      swap1\n      pop\n        /* \"#utility.yul\":628:799   */\n      swap2\n      swap1\n      pop\n      jump\t// out\n\n    auxdata: 0xa26469706673582212202af6e2bad8a3689c938e39809a2ea21f4a978868f565cea978cf8357b80d173464736f6c634300081e0033\n}\n",
				"bytecode": {
					"linkReferences": {},
					"object": "608060405260055f553480156012575f5ffd5b50610194806100205f395ff3fe608060405234801561000f575f5ffd5b506004361061003f575f3560e01c80631407b80d14610043578063303de5dd1461006157806334ad45601461007f575b5f5ffd5b61004b61009d565b60405161005891906100f1565b60405180910390f35b6100696100a5565b60405161007691906100f1565b60405180910390f35b6100876100be565b60405161009491906100f1565b60405180910390f35b5f5f54905090565b5f5f5f81546100b390610137565b919050819055905090565b5f5f5f8154809291906100d090610137565b91905055905090565b5f819050919050565b6100eb816100d9565b82525050565b5f6020820190506101045f8301846100e2565b92915050565b7f4e487b71000000000000000000000000000000000000000000000000000000005f52601160045260245ffd5b5f610141826100d9565b91505f82036101535761015261010a565b5b60018203905091905056fea26469706673582212202af6e2bad8a3689c938e39809a2ea21f4a978868f565cea978cf8357b80d173464736f6c634300081e0033",
					"opcodes": "PUSH1 0x80 PUSH1 0x40 MSTORE PUSH1 0x5 PUSH0 SSTORE CALLVALUE DUP1 ISZERO PUSH1 0x12 JUMPI PUSH0 PUSH0 REVERT JUMPDEST POP PUSH2 0x194 DUP1 PUSH2 0x20 PUSH0 CODECOPY PUSH0 RETURN INVALID PUSH1 0x80 PUSH1 0x40 MSTORE CALLVALUE DUP1 ISZERO PUSH2 0xF JUMPI PUSH0 PUSH0 REVERT JUMPDEST POP PUSH1 0x4 CALLDATASIZE LT PUSH2 0x3F JUMPI PUSH0 CALLDATALOAD PUSH1 0xE0 SHR DUP1 PUSH4 0x1407B80D EQ PUSH2 0x43 JUMPI DUP1 PUSH4 0x303DE5DD EQ PUSH2 0x61 JUMPI DUP1 PUSH4 0x34AD4560 EQ PUSH2 0x7F JUMPI JUMPDEST PUSH0 PUSH0 REVERT JUMPDEST PUSH2 0x4B PUSH2 0x9D JUMP JUMPDEST PUSH1 0x40 MLOAD PUSH2 0x58 SWAP2 SWAP1 PUSH2 0xF1 JUMP JUMPDEST PUSH1 0x40 MLOAD DUP1 SWAP2 SUB SWAP1 RETURN JUMPDEST PUSH2 0x69 PUSH2 0xA5 JUMP JUMPDEST PUSH1 0x40 MLOAD PUSH2 0x76 SWAP2 SWAP1 PUSH2 0xF1 JUMP JUMPDEST PUSH1 0x40 MLOAD DUP1 SWAP2 SUB SWAP1 RETURN JUMPDEST PUSH2 0x87 PUSH2 0xBE JUMP JUMPDEST PUSH1 0x40 MLOAD PUSH2 0x94 SWAP2 SWAP1 PUSH2 0xF1 JUMP JUMPDEST PUSH1 0x40 MLOAD DUP1 SWAP2 SUB SWAP1 RETURN JUMPDEST PUSH0 PUSH0 SLOAD SWAP1 POP SWAP1 JUMP JUMPDEST PUSH0 PUSH0 PUSH0 DUP2 SLOAD PUSH2 0xB3 SWAP1 PUSH2 0x137 JUMP JUMPDEST SWAP2 SWAP1 POP DUP2 SWAP1 SSTORE SWAP1 POP SWAP1 JUMP JUMPDEST PUSH0 PUSH0 PUSH0 DUP2 SLOAD DUP1 SWAP3 SWAP2 SWAP1 PUSH2 0xD0 SWAP1 PUSH2 0x137 JUMP JUMPDEST SWAP2 SWAP1 POP SSTORE SWAP1 POP SWAP1 JUMP JUMPDEST PUSH0 DUP2 SWAP1 POP SWAP2 SWAP1 POP JUMP JUMPDEST PUSH2 0xEB DUP2 PUSH2 0xD9 JUMP JUMPDEST DUP3 MSTORE POP POP JUMP JUMPDEST PUSH0 PUSH1 0x20 DUP3 ADD SWAP1 POP PUSH2 0x104 PUSH0 DUP4 ADD DUP5 PUSH2 0xE2 JUMP JUMPDEST SWAP3 SWAP2 POP POP JUMP JUMPDEST PUSH32 0x4E487B7100000000000000000000000000000000000000000000000000000000 PUSH0 MSTORE PUSH1 0x11 PUSH1 0x4 MSTORE PUSH1 0x24 PUSH0 REVERT JUMPDEST PUSH0 PUSH2 0x141 DUP3 PUSH2 0xD9 JUMP JUMPDEST SWAP2 POP PUSH0 DUP3 SUB PUSH2 0x153 JUMPI PUSH2 0x152 PUSH2 0x10A JUMP JUMPDEST JUMPDEST PUSH1 0x1 DUP3 SUB SWAP1 POP SWAP2 SWAP1 POP JUMP INVALID LOG2 PUSH5 0x6970667358 0x22 SLT KECCAK256 0x2A 0xF6 0xE2 0xBA 0xD8 LOG3 PUSH9 0x9C938E39809A2EA21F BLOBBASEFEE SWAP8 DUP9 PUSH9 0xF565CEA978CF8357B8 0xD OR CALLVALUE PUSH5 0x736F6C6343 STOP ADDMOD 0x1E STOP CALLER "
				},
				"gasEstimates": {
					"creation": {
						"codeDepositCost": "80800",
						"executionCost": "22232",
						"totalCost": "103032"
					},
					"external": {
						"justA()": "2409",
						"postMinus()": "infinite",
						"preMinus()": "infinite"
					}
				},
				"methodIdentifiers": {
					"justA()": "1407b80d",
					"postMinus()": "34ad4560",
					"preMinus()": "303de5dd"
				}
			},
			"storageLayout": {
				"storage": [
					{
						"astId": 4,
						"contract": "02 리믹스로 솔리디티 시작하기/Ex2_7전위 감소와 후위 감소.sol:Ex2_7",
						"label": "a",
						"offset": 0,
						"slot": "0",
						"type": "t_uint256"
					}
				],
				"types": {
					"t_uint256": {
						"encoding": "inplace",
						"label": "uint256",
						"numberOfBytes": "32"
					}
				}
			},
			"userdoc": {
				"kind": "user",
				"methods": {},
				"version": 1
			}
		}
	}
}